{
  "_format": "hh-sol-artifact-1",
  "contractName": "SampleContract",
  "sourceName": "contracts/SampleContract.sol",
  "abi": [
    {
      "anonymous": false,
      "inputs": [
        {
          "indexed": false,
          "internalType": "string",
          "name": "message",
          "type": "string"
        }
      ],
      "name": "Greet",
      "type": "event"
    },
    {
      "anonymous": false,
      "inputs": [
        {
          "indexed": false,
          "internalType": "string",
          "name": "greeting",
          "type": "string"
        }
      ],
      "name": "Message",
      "type": "event"
    },
    {
      "inputs": [
        {
          "internalType": "string",
          "name": "_content",
          "type": "string"
        }
      ],
      "name": "getInput",
      "outputs": [],
      "stateMutability": "nonpayable",
      "type": "function"
    },
    {
      "inputs": [],
      "name": "greet",
      "outputs": [],
      "stateMutability": "nonpayable",
      "type": "function"
    }
  ],
  "bytecode": "0x608060405234801561001057600080fd5b506102d6806100206000396000f3fe608060405234801561001057600080fd5b50600436106100365760003560e01c806331cc48fd1461003b578063cfae321714610057575b600080fd5b61005560048036038101906100509190610105565b610061565b005b61005f61009b565b005b7f51a7f65c6325882f237d4aeb43228179cfad48b868511d508e24b4437a81913781604051610090919061017f565b60405180910390a150565b565b60006100b06100ab846101d2565b6101a1565b9050828152602081018484840111156100c857600080fd5b6100d384828561021e565b509392505050565b600082601f8301126100ec57600080fd5b81356100fc84826020860161009d565b91505092915050565b60006020828403121561011757600080fd5b600082013567ffffffffffffffff81111561013157600080fd5b61013d848285016100db565b91505092915050565b600061015182610202565b61015b818561020d565b935061016b81856020860161022d565b6101748161028f565b840191505092915050565b600060208201905081810360008301526101998184610146565b905092915050565b6000604051905081810181811067ffffffffffffffff821117156101c8576101c7610260565b5b8060405250919050565b600067ffffffffffffffff8211156101ed576101ec610260565b5b601f19601f8301169050602081019050919050565b600081519050919050565b600082825260208201905092915050565b82818337600083830152505050565b60005b8381101561024b578082015181840152602081019050610230565b8381111561025a576000848401525b50505050565b7f4e487b7100000000000000000000000000000000000000000000000000000000600052604160045260246000fd5b6000601f19601f830116905091905056fea264697066735822122052e80eb981af7e434a3bea61414a2333b08a26cbf102a6751d7b94c8557f44ca64736f6c63430008000033",
  "linkReferences": {},
  "deployedLinkReferences": {}
}